:10000000BEEF02F00000000000EF00F00000000072
:0A0010000000000000000000F3D71C
:10001C0073C06FFF6DB002D00000FCD76FCF00F043
:02002C001200C0
:10002E0073C0C9FFC7B002D00000FCD7C9CF00F023
:02003E001200AE
:10004000F250026EF29E0500FF6A0150FE6E0050F3
:08005000FD6E02BEF28E1200EB
:10005800020E0C6E490E0D6E0D2EFED70C2EFCD71F
:0600680000000000120080
:10006E008292800E00017111006E21C0E1FF22C04C
:10007E00E2FF00C0E6FF1FC000F020C001F0D9DF94
:10008E0021C0E1FF22C0E2FF72C0E6FF1FC000F0F8
:0A009E0020C001F0CEDF82821200C4
:1000A8008292A00E00017111006E21C0E1FF22C0F2
:1000B800E2FF00C0E6FF1FC000F020C001F0BCDF77
:1000C80021C0E1FF22C0E2FF72C0E6FF1FC000F0BE
:0A00D80020C001F0B1DF82821200A7
:1000E200829221C0E1FF22C0E2FF71C0E6FF1FC081
:1000F20000F020C001F0A3DF21C0E1FF22C0E2FF37
:10010200E66A1FC000F020C001F099DF828212006F
:100112000001716BC80E715D04E29DDF9CDF712BE3
:04012200F9D71200F7
:100126008292400E00017111006E21C0E1FF22C0D3
:10013600E2FF00C0E6FF1FC000F020C001F07DDF37
:1001460021C0E1FF22C0E2FF72C0E6FF1FC000F03F
:0A01560020C001F072DF8282120067
:100160001F0E0001716F010E726F9EDF1F0E0001E6
:10017000716F020E726F7BDF140E0001716F6CC025
:1001800072F0D1DFC6DF160E716F6EC072F0CBDF7A
:10019000C0DF170E716F6DC072F0C5DFBADF1200DD
:1001A0008292400E00016C11006E21C0E1FF22C05E
:1001B000E2FF00C0E6FF1FC000F020C001F040DFFA
:1001C00021C0E1FF22C0E2FF6DC0E6FF1FC000F0CA
:1001D00020C001F035DF21C0E1FF22C0E2FF6EC088
:1001E000E6FF1FC000F020C001F02ADF828212006B
:1001F0001F0E0001716F010E726F56DF1F0E00019E
:10020000716F020E726F33DF140E0001716F6CC0DC
:1002100072F089DF120E0001716F010E726F27DF1D
:1002200078DF120E716F010E726F3EDF180E000143
:10023000716F57DF6FC0E1FF70C0E2FF00C0E6FFE3
:10024000190E0001716F4DDF6DC0E1FF6EC0E2FF5E
:0602500000C0E6FF1200F1
:100256006CC002F06DC003F06FC000F070C001F01A
:10026600010E00016F5F000E705B0050011009E087
:1002760002C0E1FF03C0E2FF6EC0E6FF024A032AA6
:0C028600EBD76CC000F06DC001F012005E
:1002920068C004F069C005F066C002F067C003F0F0
:1002A2006AC000F06BC001F0010E00016A5F000E2F
:1002B2006B5B005001100FE004C0E9FF05C0EAFFCC
:1002C20002C0E1FF03C0E2FFEECFE6FF024A032ACB
:1002D200044A052AE5D766C000F067C001F01200A3
:1002E2000001716B5F5203E00D0E606F02D0050ECC
:1002F200606F60C072F016DF020E0001716F5F5214
:1003020003E0310E666F02D0300E666F66C072F087
:1003120009DF0A0E00016C6FEE0E6D6F050E6E6F37
:100322003EDF040E0001716F5F5203E0150E676F2E
:1003320002D0120E676F67C072F0F4DE060E000183
:10034200716F120E726FEEDE5F5206E1070E000150
:10035200716F0C0E726FE6DE5F5206E1090E00014C
:10036200716F3F0E726FDEDE1F0E0001716F010EA4
:10037200726F7CDE1F0E0001716F020E726F76DEED
:10038200040E0001716F23C072F0CCDE050E000175
:10039200716F24C072F0C6DE020E0001716F25C0BB
:1003A20072F0C0DE030E0001716F26C072F0BADE79
:1003B2000001716B27C072F0B5DE010E0001716F92
:1003C20028C072F0AFDE150E0001716F726BAADEEB
:1003D200120E0001716F84DE00C05EF000016C6BD2
:1003E200690E6D6F000E6E6F6A0E6F6F000E706F8A
:1003F200FEDE00016C6BFE0E69156D6F5F5203E04D
:10040200010E686F01D0686B68516D136AC06EF09F
:10041200A6DE100E6C6F010E6D6F6E6BA0DE1F0EEE
:10042200716F040E726F22DE73DE2D0E6C6F000E82
:100432006D6F6E6B2D0E6F6F000E706F0BDF1F0EE8
:10044200716F010E726F2FDE1F0E0001716F020EAF
:06045200726F29DE1200AA
:100458000900F5CFE6FF0006FBE10106F9E112000D
:10046800C69A2E0E1F6E000E206E730E216E000EA1
:10047800226EFF0E296EFF0E2A6EFF0E2B6EFF0EE8
:100488002C6E949A94969488C66A400EC76EC68A53
:02049800120050
:10049A00949082809492828237DE828035DE8290C6
:1004AA0033DE828031DE829221C0E1FF22C0E2FF88
:1004BA00FF0EE66E1FC000F020C001F0BCDD828294
:1004CA0023DE230E666F000E676F61C068F062C09C
:1004DA0069F0060E6A6F000E6B6FD6DE5A0E666FF3
:1004EA00000E676F63C068F064C069F0040E6A6F3B
:1004FA00000E6B6FC9DE1F0E716F010E726FCFDDBA
:10050A001F0E0001716F020E726FC9DD080E000125
:10051A006C6F6D6B6E6B3FDE0A0E00016C6FAD0E79
:10052A006D6F190E6E6F37DE0C0E00016C6FAD0E1B
:10053A006D6F190E6E6F2FDE00016C6B6D6B6E6B3B
:10054A002ADE040E00016C6FAE0E6D6F190E6E6F0F
:10055A0022DE1F0E0001716F010E726FA0DD1F0EE9
:10056A000001716F020E726F7DDD65C05FF0B4DE4F
:02057A0012006D
:10057C00156A140E166EA50E176E760E186E190EE1
:10058C00196E3F0E1A6EC00E1B6EA90E1C6EC80E95
:10059C001D6E030E1E6E956A0F013A6B3B6B836AE0
:1005AC005DDF150E0001616F000E626F1B0E636F35
:1005BC00000E646F010E656F6ADF150E0001616F2E
:1005CC00000E626F1B0E636F000E646F010E656F81
:0605DC005EDFF3D7FFD73C
:020000040030CA
:0D000100231F3CFFBF81FF0FC00FE00F4029
:00000001FF
